{
  "_format": "hh-sol-artifact-1",
  "contractName": "ParsingNFTData",
  "sourceName": "contracts/ParsingNFTData.sol",
  "abi": [
    {
      "inputs": [
        {
          "internalType": "address",
          "name": "holder",
          "type": "address"
        },
        {
          "internalType": "address[]",
          "name": "erc1155s",
          "type": "address[]"
        },
        {
          "internalType": "uint256[][]",
          "name": "tokenIds",
          "type": "uint256[][]"
        }
      ],
      "name": "getERC1155BalanceList_OneHolder",
      "outputs": [
        {
          "internalType": "uint256[][]",
          "name": "balances",
          "type": "uint256[][]"
        }
      ],
      "stateMutability": "view",
      "type": "function"
    },
    {
      "inputs": [
        {
          "internalType": "address",
          "name": "erc1155",
          "type": "address"
        },
        {
          "internalType": "address[]",
          "name": "holders",
          "type": "address[]"
        },
        {
          "internalType": "uint256[][]",
          "name": "tokenIds",
          "type": "uint256[][]"
        }
      ],
      "name": "getERC1155BalanceList_OneToken",
      "outputs": [
        {
          "internalType": "uint256[][]",
          "name": "balances",
          "type": "uint256[][]"
        }
      ],
      "stateMutability": "view",
      "type": "function"
    },
    {
      "inputs": [
        {
          "internalType": "address",
          "name": "holder",
          "type": "address"
        },
        {
          "internalType": "address[]",
          "name": "",
          "type": "address[]"
        }
      ],
      "name": "getERC20BalanceList_OneHolder",
      "outputs": [
        {
          "internalType": "uint256[]",
          "name": "balances",
          "type": "uint256[]"
        }
      ],
      "stateMutability": "view",
      "type": "function"
    },
    {
      "inputs": [
        {
          "internalType": "address",
          "name": "erc20",
          "type": "address"
        },
        {
          "internalType": "address[]",
          "name": "",
          "type": "address[]"
        }
      ],
      "name": "getERC20BalanceList_OneToken",
      "outputs": [
        {
          "internalType": "uint256[]",
          "name": "balances",
          "type": "uint256[]"
        }
      ],
      "stateMutability": "view",
      "type": "function"
    },
    {
      "inputs": [
        {
          "internalType": "address",
          "name": "holder",
          "type": "address"
        },
        {
          "internalType": "address[]",
          "name": "",
          "type": "address[]"
        }
      ],
      "name": "getERC721BalanceList_OneHolder",
      "outputs": [
        {
          "internalType": "uint256[]",
          "name": "balances",
          "type": "uint256[]"
        }
      ],
      "stateMutability": "view",
      "type": "function"
    },
    {
      "inputs": [
        {
          "internalType": "address",
          "name": "nft",
          "type": "address"
        },
        {
          "internalType": "address[]",
          "name": "",
          "type": "address[]"
        }
      ],
      "name": "getERC721BalanceList_OneToken",
      "outputs": [
        {
          "internalType": "uint256[]",
          "name": "balances",
          "type": "uint256[]"
        }
      ],
      "stateMutability": "view",
      "type": "function"
    },
    {
      "inputs": [
        {
          "internalType": "address",
          "name": "nft",
          "type": "address"
        },
        {
          "internalType": "uint256[]",
          "name": "",
          "type": "uint256[]"
        }
      ],
      "name": "getERC721HolderList",
      "outputs": [
        {
          "internalType": "address[]",
          "name": "holders",
          "type": "address[]"
        }
      ],
      "stateMutability": "view",
      "type": "function"
    }
  ],
  "bytecode": "0x60808060405234601557610848908161001b8239f35b600080fdfe6080604052600436101561001257600080fd5b60003560e01c80632605fd93146103e15780632f685af6146103e1578063539c59cd146101db57806362219ad9146102995780637c97541b146101e0578063e12aa8dd146101db5763e1b939e41461006957600080fd5b346101d65761007736610585565b929193610085858514610674565b61008e85610703565b936001600160a01b039091169060005b8681106100b757604051806100b388826105e8565b0390f35b6100c281838661074d565b90506100cd816107a8565b6100d783896107da565b526100e282886107da565b5060005b8181106100f757505060010161009e565b61015a60208461012c8461012661011e849f998e999f9e908b610119926107ee565b6107fe565b938a8d61074d565b906107ee565b604051627eeac760e11b81526001600160a01b03909216600483015235602482015291829081906044820190565b0381895afa9081156101ca57600091610195575b5090600191610187826101818d8c6107da565b516107da565b5201969095969791976100e6565b906020823d82116101c2575b816101ae602093836106b3565b810103126101bf575051600161016e565b80fd5b3d91506101a1565b6040513d6000823e3d90fd5b600080fd5b61050d565b346101d6576101ee36610417565b50506044359060206040519280845260051b8181850101604052019060205b828110610263578360405180916020820160208352815180915260206040840192019060005b818110610241575050500390f35b82516001600160a01b0316845285945060209384019390920191600101610233565b6331a9108f60e11b6000526020908160448201600437816000602481865afa61028d575b0161020d565b60005181860152610287565b346101d6576102a736610585565b9293906102b5838514610674565b6102be83610703565b9360005b8481106102d757604051806100b388826105e8565b6102e281838561074d565b90506102ed816107a8565b6102f783896107da565b5261030282886107da565b5060005b8181106103175750506001016102c2565b9197909695909161037b60208a61034a846101266001600160a01b03610341610119868b8d6107ee565b16938a8c61074d565b604051627eeac760e11b81526001600160a01b038b1660048201529035602482015292839190829081906044820190565b03915afa9081156101ca576000916103af575b50906001916103a1826101818d8c6107da565b520196909596979197610306565b906020823d82116103d9575b816103c8602093836106b3565b810103126101bf575051600161038e565b3d91506103bb565b610495565b9181601f840112156101d65782359167ffffffffffffffff83116101d6576020808501948460051b0101116101d657565b9060406003198301126101d6576004356001600160a01b03811681036101d657916024359067ffffffffffffffff82116101d657610457916004016103e6565b9091565b602060408183019282815284518094520192019060005b81811061047f5750505090565b8251845260209384019390920191600101610472565b346101d6576104a336610417565b50506044359060206040519280845260051b8181850101604052019060205b8281106104d757604051806100b3868261045b565b6020906370a0823160e01b6000528260045281600060248184604401355afa610501575b016104c2565b600051818601526104fb565b346101d65761051b36610417565b50506044359060206040519280845260051b8181850101604052019060205b82811061054f57604051806100b3868261045b565b6370a0823160e01b6000526020908160448201600437816000602481865afa610579575b0161053a565b60005181860152610573565b9060606003198301126101d6576004356001600160a01b03811681036101d6579160243567ffffffffffffffff81116101d657816105c5916004016103e6565b929092916044359067ffffffffffffffff82116101d657610457916004016103e6565b602081016020825282518091526040820191602060408360051b8301019401926000915b83831061061b57505050505090565b9091929394603f19828203018352855190602080835192838152019201906000905b80821061065c575050506020806001929701930193019193929061060c565b9091926020806001928651815201940192019061063d565b1561067b57565b60405162461bcd60e51b815260206004820152601060248201526f13115391d51217d393d517d15455505360821b6044820152606490fd5b90601f8019910116810190811067ffffffffffffffff8211176106d557604052565b634e487b7160e01b600052604160045260246000fd5b67ffffffffffffffff81116106d55760051b60200190565b9061070d826106eb565b61071a60405191826106b3565b828152809261072b601f19916106eb565b019060005b82811061073c57505050565b806060602080938501015201610730565b91908110156107925760051b81013590601e19813603018212156101d657019081359167ffffffffffffffff83116101d6576020018260051b360381136101d6579190565b634e487b7160e01b600052603260045260246000fd5b906107b2826106eb565b6107bf60405191826106b3565b82815280926107d0601f19916106eb565b0190602036910137565b80518210156107925760209160051b010190565b91908110156107925760051b0190565b356001600160a01b03811681036101d6579056fea2646970667358221220cc114dbbbf63b6b78dd84e7100b5229ec22d4947099a0d138f63595ca9d5e6e564736f6c634300081c0033",
  "linkReferences": {},
  "deployedLinkReferences": {}
}